{
  "_format": "hh-sol-artifact-1",
  "contractName": "YourCollectible",
  "sourceName": "contracts/YourCollectible.sol",
  "abi": [
    {
      "inputs": [
        {
          "internalType": "bytes32[]",
          "name": "assetsForSale",
          "type": "bytes32[]"
        }
      ],
      "stateMutability": "nonpayable",
      "type": "constructor"
    },
    {
      "anonymous": false,
      "inputs": [
        {
          "indexed": true,
          "internalType": "address",
          "name": "owner",
          "type": "address"
        },
        {
          "indexed": true,
          "internalType": "address",
          "name": "approved",
          "type": "address"
        },
        {
          "indexed": true,
          "internalType": "uint256",
          "name": "tokenId",
          "type": "uint256"
        }
      ],
      "name": "Approval",
      "type": "event"
    },
    {
      "anonymous": false,
      "inputs": [
        {
          "indexed": true,
          "internalType": "address",
          "name": "owner",
          "type": "address"
        },
        {
          "indexed": true,
          "internalType": "address",
          "name": "operator",
          "type": "address"
        },
        {
          "indexed": false,
          "internalType": "bool",
          "name": "approved",
          "type": "bool"
        }
      ],
      "name": "ApprovalForAll",
      "type": "event"
    },
    {
      "anonymous": false,
      "inputs": [
        {
          "indexed": true,
          "internalType": "address",
          "name": "from",
          "type": "address"
        },
        {
          "indexed": true,
          "internalType": "address",
          "name": "to",
          "type": "address"
        },
        {
          "indexed": true,
          "internalType": "uint256",
          "name": "tokenId",
          "type": "uint256"
        }
      ],
      "name": "Transfer",
      "type": "event"
    },
    {
      "inputs": [
        {
          "internalType": "address",
          "name": "to",
          "type": "address"
        },
        {
          "internalType": "uint256",
          "name": "tokenId",
          "type": "uint256"
        }
      ],
      "name": "approve",
      "outputs": [],
      "stateMutability": "nonpayable",
      "type": "function"
    },
    {
      "inputs": [
        {
          "internalType": "address",
          "name": "owner",
          "type": "address"
        }
      ],
      "name": "balanceOf",
      "outputs": [
        {
          "internalType": "uint256",
          "name": "",
          "type": "uint256"
        }
      ],
      "stateMutability": "view",
      "type": "function"
    },
    {
      "inputs": [],
      "name": "baseURI",
      "outputs": [
        {
          "internalType": "string",
          "name": "",
          "type": "string"
        }
      ],
      "stateMutability": "view",
      "type": "function"
    },
    {
      "inputs": [
        {
          "internalType": "bytes32",
          "name": "",
          "type": "bytes32"
        }
      ],
      "name": "forSale",
      "outputs": [
        {
          "internalType": "bool",
          "name": "",
          "type": "bool"
        }
      ],
      "stateMutability": "view",
      "type": "function"
    },
    {
      "inputs": [
        {
          "internalType": "uint256",
          "name": "tokenId",
          "type": "uint256"
        }
      ],
      "name": "getApproved",
      "outputs": [
        {
          "internalType": "address",
          "name": "",
          "type": "address"
        }
      ],
      "stateMutability": "view",
      "type": "function"
    },
    {
      "inputs": [
        {
          "internalType": "address",
          "name": "owner",
          "type": "address"
        },
        {
          "internalType": "address",
          "name": "operator",
          "type": "address"
        }
      ],
      "name": "isApprovedForAll",
      "outputs": [
        {
          "internalType": "bool",
          "name": "",
          "type": "bool"
        }
      ],
      "stateMutability": "view",
      "type": "function"
    },
    {
      "inputs": [
        {
          "internalType": "string",
          "name": "tokenURI",
          "type": "string"
        }
      ],
      "name": "mintItem",
      "outputs": [
        {
          "internalType": "uint256",
          "name": "",
          "type": "uint256"
        }
      ],
      "stateMutability": "nonpayable",
      "type": "function"
    },
    {
      "inputs": [],
      "name": "name",
      "outputs": [
        {
          "internalType": "string",
          "name": "",
          "type": "string"
        }
      ],
      "stateMutability": "view",
      "type": "function"
    },
    {
      "inputs": [
        {
          "internalType": "uint256",
          "name": "tokenId",
          "type": "uint256"
        }
      ],
      "name": "ownerOf",
      "outputs": [
        {
          "internalType": "address",
          "name": "",
          "type": "address"
        }
      ],
      "stateMutability": "view",
      "type": "function"
    },
    {
      "inputs": [
        {
          "internalType": "address",
          "name": "from",
          "type": "address"
        },
        {
          "internalType": "address",
          "name": "to",
          "type": "address"
        },
        {
          "internalType": "uint256",
          "name": "tokenId",
          "type": "uint256"
        }
      ],
      "name": "safeTransferFrom",
      "outputs": [],
      "stateMutability": "nonpayable",
      "type": "function"
    },
    {
      "inputs": [
        {
          "internalType": "address",
          "name": "from",
          "type": "address"
        },
        {
          "internalType": "address",
          "name": "to",
          "type": "address"
        },
        {
          "internalType": "uint256",
          "name": "tokenId",
          "type": "uint256"
        },
        {
          "internalType": "bytes",
          "name": "_data",
          "type": "bytes"
        }
      ],
      "name": "safeTransferFrom",
      "outputs": [],
      "stateMutability": "nonpayable",
      "type": "function"
    },
    {
      "inputs": [
        {
          "internalType": "address",
          "name": "operator",
          "type": "address"
        },
        {
          "internalType": "bool",
          "name": "approved",
          "type": "bool"
        }
      ],
      "name": "setApprovalForAll",
      "outputs": [],
      "stateMutability": "nonpayable",
      "type": "function"
    },
    {
      "inputs": [
        {
          "internalType": "bytes4",
          "name": "interfaceId",
          "type": "bytes4"
        }
      ],
      "name": "supportsInterface",
      "outputs": [
        {
          "internalType": "bool",
          "name": "",
          "type": "bool"
        }
      ],
      "stateMutability": "view",
      "type": "function"
    },
    {
      "inputs": [],
      "name": "symbol",
      "outputs": [
        {
          "internalType": "string",
          "name": "",
          "type": "string"
        }
      ],
      "stateMutability": "view",
      "type": "function"
    },
    {
      "inputs": [
        {
          "internalType": "uint256",
          "name": "index",
          "type": "uint256"
        }
      ],
      "name": "tokenByIndex",
      "outputs": [
        {
          "internalType": "uint256",
          "name": "",
          "type": "uint256"
        }
      ],
      "stateMutability": "view",
      "type": "function"
    },
    {
      "inputs": [
        {
          "internalType": "address",
          "name": "owner",
          "type": "address"
        },
        {
          "internalType": "uint256",
          "name": "index",
          "type": "uint256"
        }
      ],
      "name": "tokenOfOwnerByIndex",
      "outputs": [
        {
          "internalType": "uint256",
          "name": "",
          "type": "uint256"
        }
      ],
      "stateMutability": "view",
      "type": "function"
    },
    {
      "inputs": [
        {
          "internalType": "uint256",
          "name": "tokenId",
          "type": "uint256"
        }
      ],
      "name": "tokenURI",
      "outputs": [
        {
          "internalType": "string",
          "name": "",
          "type": "string"
        }
      ],
      "stateMutability": "view",
      "type": "function"
    },
    {
      "inputs": [],
      "name": "totalSupply",
      "outputs": [
        {
          "internalType": "uint256",
          "name": "",
          "type": "uint256"
        }
      ],
      "stateMutability": "view",
      "type": "function"
    },
    {
      "inputs": [
        {
          "internalType": "address",
          "name": "from",
          "type": "address"
        },
        {
          "internalType": "address",
          "name": "to",
          "type": "address"
        },
        {
          "internalType": "uint256",
          "name": "tokenId",
          "type": "uint256"
        }
      ],
      "name": "transferFrom",
      "outputs": [],
      "stateMutability": "nonpayable",
      "type": "function"
    },
    {
      "inputs": [
        {
          "internalType": "bytes32",
          "name": "",
          "type": "bytes32"
        }
      ],
      "name": "uriToTokenId",
      "outputs": [
        {
          "internalType": "uint256",
          "name": "",
          "type": "uint256"
        }
      ],
      "stateMutability": "view",
      "type": "function"
    }
  ],
  "bytecode": "0x60806040523480156200001157600080fd5b506040516200221f3803806200221f833981810160405260208110156200003757600080fd5b81019080805160405193929190846401000000008211156200005857600080fd5b9083019060208201858111156200006e57600080fd5b82518660208202830111640100000000821117156200008c57600080fd5b82525081516020918201928201910280838360005b83811015620000bb578181015183820152602001620000a1565b505050509050016040525050506040518060400160405280600f81526020016e596f7572436f6c6c65637469626c6560881b815250604051806040016040528060038152602001622ca1a160e91b815250620001246301ffc9a760e01b6200024560201b60201c565b815162000139906006906020850190620002e3565b5080516200014f906007906020840190620002e3565b506200016b6380ac58cd60e01b6001600160e01b036200024516565b62000186635b5e139f60e01b6001600160e01b036200024516565b620001a163780e9d6360e01b6001600160e01b036200024516565b505060408051808201909152601581527f68747470733a2f2f697066732e696f2f697066732f00000000000000000000006020820152620001eb906001600160e01b03620002ca16565b60005b81518110156200023d576001600b60008484815181106200020b57fe5b6020908102919091018101518252810191909152604001600020805460ff1916911515919091179055600101620001ee565b505062000388565b6001600160e01b03198082161415620002a5576040805162461bcd60e51b815260206004820152601c60248201527f4552433136353a20696e76616c696420696e7465726661636520696400000000604482015290519081900360640190fd5b6001600160e01b0319166000908152602081905260409020805460ff19166001179055565b8051620002df906009906020840190620002e3565b5050565b828054600181600116156101000203166002900490600052602060002090601f016020900481019282601f106200032657805160ff191683800117855562000356565b8280016001018555821562000356579182015b828111156200035657825182559160200191906001019062000339565b506200036492915062000368565b5090565b6200038591905b808211156200036457600081556001016200036f565b90565b611e8780620003986000396000f3fe608060405234801561001057600080fd5b506004361061012c5760003560e01c80636c0360eb116100ad578063b7416f2a11610071578063b7416f2a146103bd578063b88d4fde146103da578063c7545849146104a0578063c87b56dd14610546578063e985e9c5146105635761012c565b80636c0360eb1461033c57806370a082311461034457806395d89b411461036a578063a22cb46514610372578063ae374b99146103a05761012c565b806323b872dd116100f457806323b872dd1461026a5780632f745c59146102a057806342842e0e146102cc5780634f6ccce7146103025780636352211e1461031f5761012c565b806301ffc9a71461013157806306fdde031461016c578063081812fc146101e9578063095ea7b31461022257806318160ddd14610250575b600080fd5b6101586004803603602081101561014757600080fd5b50356001600160e01b031916610591565b604080519115158252519081900360200190f35b6101746105b4565b6040805160208082528351818301528351919283929083019185019080838360005b838110156101ae578181015183820152602001610196565b50505050905090810190601f1680156101db5780820380516001836020036101000a031916815260200191505b509250505060405180910390f35b610206600480360360208110156101ff57600080fd5b503561064b565b604080516001600160a01b039092168252519081900360200190f35b61024e6004803603604081101561023857600080fd5b506001600160a01b0381351690602001356106ad565b005b610258610788565b60408051918252519081900360200190f35b61024e6004803603606081101561028057600080fd5b506001600160a01b03813581169160208101359091169060400135610799565b610258600480360360408110156102b657600080fd5b506001600160a01b0381351690602001356107f0565b61024e600480360360608110156102e257600080fd5b506001600160a01b03813581169160208101359091169060400135610821565b6102586004803603602081101561031857600080fd5b503561083c565b6102066004803603602081101561033557600080fd5b5035610858565b610174610886565b6102586004803603602081101561035a57600080fd5b50356001600160a01b03166108e7565b61017461094f565b61024e6004803603604081101561038857600080fd5b506001600160a01b03813516906020013515156109b0565b610158600480360360208110156103b657600080fd5b5035610ab5565b610258600480360360208110156103d357600080fd5b5035610aca565b61024e600480360360808110156103f057600080fd5b6001600160a01b0382358116926020810135909116916040820135919081019060808101606082013564010000000081111561042b57600080fd5b82018360208201111561043d57600080fd5b8035906020019184600183028401116401000000008311171561045f57600080fd5b91908080601f016020809104026020016040519081016040528093929190818152602001838380828437600092019190915250929550610adc945050505050565b610258600480360360208110156104b657600080fd5b8101906020810181356401000000008111156104d157600080fd5b8201836020820111156104e357600080fd5b8035906020019184600183028401116401000000008311171561050557600080fd5b91908080601f016020809104026020016040519081016040528093929190818152602001838380828437600092019190915250929550610b3a945050505050565b6101746004803603602081101561055c57600080fd5b5035610c59565b6101586004803603604081101561057957600080fd5b506001600160a01b0381358116916020013516610edc565b6001600160e01b0319811660009081526020819052604090205460ff165b919050565b60068054604080516020601f60026000196101006001881615020190951694909404938401819004810282018101909252828152606093909290918301828280156106405780601f1061061557610100808354040283529160200191610640565b820191906000526020600020905b81548152906001019060200180831161062357829003601f168201915b505050505090505b90565b600061065682610f0a565b6106915760405162461bcd60e51b815260040180806020018281038252602c815260200180611d50602c913960400191505060405180910390fd5b506000908152600460205260409020546001600160a01b031690565b60006106b882610858565b9050806001600160a01b0316836001600160a01b0316141561070b5760405162461bcd60e51b8152600401808060200182810382526021815260200180611e006021913960400191505060405180910390fd5b806001600160a01b031661071d610f1d565b6001600160a01b0316148061073e575061073e81610739610f1d565b610edc565b6107795760405162461bcd60e51b8152600401808060200182810382526038815260200180611ca36038913960400191505060405180910390fd5b6107838383610f21565b505050565b60006107946002610f8f565b905090565b6107aa6107a4610f1d565b82610f9a565b6107e55760405162461bcd60e51b8152600401808060200182810382526031815260200180611e216031913960400191505060405180910390fd5b61078383838361103e565b6001600160a01b0382166000908152600160205260408120610818908363ffffffff61119c16565b90505b92915050565b61078383838360405180602001604052806000815250610adc565b60008061085060028463ffffffff6111a816565b509392505050565b600061081b82604051806060016040528060298152602001611d05602991396002919063ffffffff6111c416565b60098054604080516020601f60026000196101006001881615020190951694909404938401819004810282018101909252828152606093909290918301828280156106405780601f1061061557610100808354040283529160200191610640565b60006001600160a01b03821661092e5760405162461bcd60e51b815260040180806020018281038252602a815260200180611cdb602a913960400191505060405180910390fd5b6001600160a01b038216600090815260016020526040902061081b90610f8f565b60078054604080516020601f60026000196101006001881615020190951694909404938401819004810282018101909252828152606093909290918301828280156106405780601f1061061557610100808354040283529160200191610640565b6109b8610f1d565b6001600160a01b0316826001600160a01b03161415610a1e576040805162461bcd60e51b815260206004820152601960248201527f4552433732313a20617070726f766520746f2063616c6c657200000000000000604482015290519081900360640190fd5b8060056000610a2b610f1d565b6001600160a01b03908116825260208083019390935260409182016000908120918716808252919093529120805460ff191692151592909217909155610a6f610f1d565b60408051841515815290516001600160a01b0392909216917f17307eab39ab6107e8899845ad3d59bd9653f200f220920489ca2b5937696c319181900360200190a35050565b600b6020526000908152604090205460ff1681565b600c6020526000908152604090205481565b610aed610ae7610f1d565b83610f9a565b610b285760405162461bcd60e51b8152600401808060200182810382526031815260200180611e216031913960400191505060405180910390fd5b610b34848484846111db565b50505050565b600080826040516020018082805190602001908083835b60208310610b705780518252601f199092019160209182019101610b51565b51815160209384036101000a60001901801990921691161790526040805192909401828103601f1901835284528151918101919091206000818152600b909252929020549194505060ff169150610bff9050576040805162461bcd60e51b815260206004820152600c60248201526b4e4f5420464f522053414c4560a01b604482015290519081900360640190fd5b6000818152600b60205260409020805460ff19169055610c1f600a61122d565b6000610c2b600a611236565b9050610c37338261123a565b610c418185611374565b6000918252600c602052604090912081905592915050565b6060610c6482610f0a565b610c9f5760405162461bcd60e51b815260040180806020018281038252602f815260200180611dd1602f913960400191505060405180910390fd5b60008281526008602090815260409182902080548351601f6002600019610100600186161502019093169290920491820184900484028101840190945280845260609392830182828015610d345780601f10610d0957610100808354040283529160200191610d34565b820191906000526020600020905b815481529060010190602001808311610d1757829003601f168201915b505050505090506060610d45610886565b9050805160001415610d59575090506105af565b815115610e1a5780826040516020018083805190602001908083835b60208310610d945780518252601f199092019160209182019101610d75565b51815160209384036101000a600019018019909216911617905285519190930192850191508083835b60208310610ddc5780518252601f199092019160209182019101610dbd565b6001836020036101000a03801982511681845116808217855250505050505090500192505050604051602081830303815290604052925050506105af565b80610e24856113d7565b6040516020018083805190602001908083835b60208310610e565780518252601f199092019160209182019101610e37565b51815160209384036101000a600019018019909216911617905285519190930192850191508083835b60208310610e9e5780518252601f199092019160209182019101610e7f565b6001836020036101000a0380198251168184511680821785525050505050509050019250505060405160208183030381529060405292505050919050565b6001600160a01b03918216600090815260056020908152604080832093909416825291909152205460ff1690565b600061081b60028363ffffffff6114b216565b3390565b600081815260046020526040902080546001600160a01b0319166001600160a01b0384169081179091558190610f5682610858565b6001600160a01b03167f8c5be1e5ebec7d5bd14f71427d1e84f3dd0314c0f7b2291e5b200ac8c7c3b92560405160405180910390a45050565b600061081b82611236565b6000610fa582610f0a565b610fe05760405162461bcd60e51b815260040180806020018281038252602c815260200180611c77602c913960400191505060405180910390fd5b6000610feb83610858565b9050806001600160a01b0316846001600160a01b031614806110265750836001600160a01b031661101b8461064b565b6001600160a01b0316145b8061103657506110368185610edc565b949350505050565b826001600160a01b031661105182610858565b6001600160a01b0316146110965760405162461bcd60e51b8152600401808060200182810382526029815260200180611da86029913960400191505060405180910390fd5b6001600160a01b0382166110db5760405162461bcd60e51b8152600401808060200182810382526024815260200180611c536024913960400191505060405180910390fd5b6110e6838383610783565b6110f1600082610f21565b6001600160a01b0383166000908152600160205260409020611119908263ffffffff6114be16565b506001600160a01b0382166000908152600160205260409020611142908263ffffffff6114ca16565b506111556002828463ffffffff6114d616565b5080826001600160a01b0316846001600160a01b03167fddf252ad1be2c89b69c2b068fc378daa952ba7f163c4a11628f55a4df523b3ef60405160405180910390a4505050565b600061081883836114ec565b60008080806111b78686611550565b9097909650945050505050565b60006111d18484846115cb565b90505b9392505050565b6111e684848461103e565b6111f284848484611695565b610b345760405162461bcd60e51b8152600401808060200182810382526032815260200180611c216032913960400191505060405180910390fd5b80546001019055565b5490565b6001600160a01b038216611295576040805162461bcd60e51b815260206004820181905260248201527f4552433732313a206d696e7420746f20746865207a65726f2061646472657373604482015290519081900360640190fd5b61129e81610f0a565b156112f0576040805162461bcd60e51b815260206004820152601c60248201527f4552433732313a20746f6b656e20616c7265616479206d696e74656400000000604482015290519081900360640190fd5b6112fc60008383610783565b6001600160a01b0382166000908152600160205260409020611324908263ffffffff6114ca16565b506113376002828463ffffffff6114d616565b5060405181906001600160a01b038416906000907fddf252ad1be2c89b69c2b068fc378daa952ba7f163c4a11628f55a4df523b3ef908290a45050565b61137d82610f0a565b6113b85760405162461bcd60e51b815260040180806020018281038252602c815260200180611d7c602c913960400191505060405180910390fd5b6000828152600860209081526040909120825161078392840190611b66565b6060816113fc57506040805180820190915260018152600360fc1b60208201526105af565b8160005b811561141457600101600a82049150611400565b60608167ffffffffffffffff8111801561142d57600080fd5b506040519080825280601f01601f191660200182016040528015611458576020820181803683370190505b50859350905060001982015b83156114a957600a840660300160f81b8282806001900393508151811061148757fe5b60200101906001600160f81b031916908160001a905350600a84049350611464565b50949350505050565b60006108188383611815565b6000610818838361182d565b600061081883836118f3565b60006111d184846001600160a01b03851661193d565b8154600090821061152e5760405162461bcd60e51b8152600401808060200182810382526022815260200180611bff6022913960400191505060405180910390fd5b82600001828154811061153d57fe5b9060005260206000200154905092915050565b8154600090819083106115945760405162461bcd60e51b8152600401808060200182810382526022815260200180611d2e6022913960400191505060405180910390fd5b60008460000184815481106115a557fe5b906000526020600020906002020190508060000154816001015492509250509250929050565b600082815260018401602052604081205482816116665760405162461bcd60e51b81526004018080602001828103825283818151815260200191508051906020019080838360005b8381101561162b578181015183820152602001611613565b50505050905090810190601f1680156116585780820380516001836020036101000a031916815260200191505b509250505060405180910390fd5b5084600001600182038154811061167957fe5b9060005260206000209060020201600101549150509392505050565b60006116a9846001600160a01b03166119d4565b6116b557506001611036565b60606117db630a85bd0160e11b6116ca610f1d565b88878760405160240180856001600160a01b03166001600160a01b03168152602001846001600160a01b03166001600160a01b0316815260200183815260200180602001828103825283818151815260200191508051906020019080838360005b8381101561174357818101518382015260200161172b565b50505050905090810190601f1680156117705780820380516001836020036101000a031916815260200191505b5095505050505050604051602081830303815290604052906001600160e01b0319166020820180516001600160e01b038381831617835250505050604051806060016040528060328152602001611c21603291396001600160a01b038816919063ffffffff6119da16565b905060008180602001905160208110156117f457600080fd5b50516001600160e01b031916630a85bd0160e11b1492505050949350505050565b60009081526001919091016020526040902054151590565b600081815260018301602052604081205480156118e9578354600019808301919081019060009087908390811061186057fe5b906000526020600020015490508087600001848154811061187d57fe5b6000918252602080832090910192909255828152600189810190925260409020908401905586548790806118ad57fe5b6001900381819060005260206000200160009055905586600101600087815260200190815260200160002060009055600194505050505061081b565b600091505061081b565b60006118ff8383611815565b6119355750815460018181018455600084815260208082209093018490558454848252828601909352604090209190915561081b565b50600061081b565b6000828152600184016020526040812054806119a25750506040805180820182528381526020808201848152865460018181018955600089815284812095516002909302909501918255915190820155865486845281880190925292909120556111d4565b828560000160018303815481106119b557fe5b90600052602060002090600202016001018190555060009150506111d4565b3b151590565b60606111d18484600085856119ee856119d4565b611a3f576040805162461bcd60e51b815260206004820152601d60248201527f416464726573733a2063616c6c20746f206e6f6e2d636f6e7472616374000000604482015290519081900360640190fd5b60006060866001600160a01b031685876040518082805190602001908083835b60208310611a7e5780518252601f199092019160209182019101611a5f565b6001836020036101000a03801982511681845116808217855250505050505090500191505060006040518083038185875af1925050503d8060008114611ae0576040519150601f19603f3d011682016040523d82523d6000602084013e611ae5565b606091505b5091509150611af5828286611b00565b979650505050505050565b60608315611b0f5750816111d4565b825115611b1f5782518084602001fd5b60405162461bcd60e51b815260206004820181815284516024840152845185939192839260440191908501908083836000831561162b578181015183820152602001611613565b828054600181600116156101000203166002900490600052602060002090601f016020900481019282601f10611ba757805160ff1916838001178555611bd4565b82800160010185558215611bd4579182015b82811115611bd4578251825591602001919060010190611bb9565b50611be0929150611be4565b5090565b61064891905b80821115611be05760008155600101611bea56fe456e756d657261626c655365743a20696e646578206f7574206f6620626f756e64734552433732313a207472616e7366657220746f206e6f6e20455243373231526563656976657220696d706c656d656e7465724552433732313a207472616e7366657220746f20746865207a65726f20616464726573734552433732313a206f70657261746f7220717565727920666f72206e6f6e6578697374656e7420746f6b656e4552433732313a20617070726f76652063616c6c6572206973206e6f74206f776e6572206e6f7220617070726f76656420666f7220616c6c4552433732313a2062616c616e636520717565727920666f7220746865207a65726f20616464726573734552433732313a206f776e657220717565727920666f72206e6f6e6578697374656e7420746f6b656e456e756d657261626c654d61703a20696e646578206f7574206f6620626f756e64734552433732313a20617070726f76656420717565727920666f72206e6f6e6578697374656e7420746f6b656e4552433732314d657461646174613a2055524920736574206f66206e6f6e6578697374656e7420746f6b656e4552433732313a207472616e73666572206f6620746f6b656e2074686174206973206e6f74206f776e4552433732314d657461646174613a2055524920717565727920666f72206e6f6e6578697374656e7420746f6b656e4552433732313a20617070726f76616c20746f2063757272656e74206f776e65724552433732313a207472616e736665722063616c6c6572206973206e6f74206f776e6572206e6f7220617070726f766564a264697066735822122060c1eeb704c87fc42695378677dadf676100d6cc81d7a63004e9d6c110d6743864736f6c63430006070033",
  "linkReferences": {},
  "deployedLinkReferences": {}
}