{
  "_format": "hh-sol-artifact-1",
  "contractName": "RaffleERC721Token",
  "sourceName": "contracts/RaffleERC721Token.sol",
  "abi": [
    {
      "inputs": [],
      "stateMutability": "nonpayable",
      "type": "constructor"
    },
    {
      "anonymous": false,
      "inputs": [
        {
          "indexed": true,
          "internalType": "address",
          "name": "owner",
          "type": "address"
        },
        {
          "indexed": true,
          "internalType": "address",
          "name": "approved",
          "type": "address"
        },
        {
          "indexed": true,
          "internalType": "uint256",
          "name": "tokenId",
          "type": "uint256"
        }
      ],
      "name": "Approval",
      "type": "event"
    },
    {
      "anonymous": false,
      "inputs": [
        {
          "indexed": true,
          "internalType": "address",
          "name": "owner",
          "type": "address"
        },
        {
          "indexed": true,
          "internalType": "address",
          "name": "operator",
          "type": "address"
        },
        {
          "indexed": false,
          "internalType": "bool",
          "name": "approved",
          "type": "bool"
        }
      ],
      "name": "ApprovalForAll",
      "type": "event"
    },
    {
      "anonymous": false,
      "inputs": [
        {
          "indexed": true,
          "internalType": "address",
          "name": "from",
          "type": "address"
        },
        {
          "indexed": true,
          "internalType": "address",
          "name": "to",
          "type": "address"
        },
        {
          "indexed": true,
          "internalType": "uint256",
          "name": "tokenId",
          "type": "uint256"
        }
      ],
      "name": "Transfer",
      "type": "event"
    },
    {
      "inputs": [
        {
          "internalType": "address",
          "name": "to",
          "type": "address"
        },
        {
          "internalType": "uint256",
          "name": "tokenId",
          "type": "uint256"
        }
      ],
      "name": "approve",
      "outputs": [],
      "stateMutability": "nonpayable",
      "type": "function"
    },
    {
      "inputs": [
        {
          "internalType": "address",
          "name": "owner",
          "type": "address"
        }
      ],
      "name": "balanceOf",
      "outputs": [
        {
          "internalType": "uint256",
          "name": "",
          "type": "uint256"
        }
      ],
      "stateMutability": "view",
      "type": "function"
    },
    {
      "inputs": [
        {
          "internalType": "uint256",
          "name": "tokenId",
          "type": "uint256"
        }
      ],
      "name": "getApproved",
      "outputs": [
        {
          "internalType": "address",
          "name": "",
          "type": "address"
        }
      ],
      "stateMutability": "view",
      "type": "function"
    },
    {
      "inputs": [
        {
          "internalType": "address",
          "name": "owner",
          "type": "address"
        },
        {
          "internalType": "address",
          "name": "operator",
          "type": "address"
        }
      ],
      "name": "isApprovedForAll",
      "outputs": [
        {
          "internalType": "bool",
          "name": "",
          "type": "bool"
        }
      ],
      "stateMutability": "view",
      "type": "function"
    },
    {
      "inputs": [],
      "name": "name",
      "outputs": [
        {
          "internalType": "string",
          "name": "",
          "type": "string"
        }
      ],
      "stateMutability": "view",
      "type": "function"
    },
    {
      "inputs": [
        {
          "internalType": "address",
          "name": "to",
          "type": "address"
        },
        {
          "internalType": "string",
          "name": "_tokenURI",
          "type": "string"
        }
      ],
      "name": "openMint",
      "outputs": [
        {
          "internalType": "uint256",
          "name": "",
          "type": "uint256"
        }
      ],
      "stateMutability": "nonpayable",
      "type": "function"
    },
    {
      "inputs": [
        {
          "internalType": "uint256",
          "name": "tokenId",
          "type": "uint256"
        }
      ],
      "name": "ownerOf",
      "outputs": [
        {
          "internalType": "address",
          "name": "",
          "type": "address"
        }
      ],
      "stateMutability": "view",
      "type": "function"
    },
    {
      "inputs": [
        {
          "internalType": "address",
          "name": "from",
          "type": "address"
        },
        {
          "internalType": "address",
          "name": "to",
          "type": "address"
        },
        {
          "internalType": "uint256",
          "name": "tokenId",
          "type": "uint256"
        }
      ],
      "name": "safeTransferFrom",
      "outputs": [],
      "stateMutability": "nonpayable",
      "type": "function"
    },
    {
      "inputs": [
        {
          "internalType": "address",
          "name": "from",
          "type": "address"
        },
        {
          "internalType": "address",
          "name": "to",
          "type": "address"
        },
        {
          "internalType": "uint256",
          "name": "tokenId",
          "type": "uint256"
        },
        {
          "internalType": "bytes",
          "name": "data",
          "type": "bytes"
        }
      ],
      "name": "safeTransferFrom",
      "outputs": [],
      "stateMutability": "nonpayable",
      "type": "function"
    },
    {
      "inputs": [
        {
          "internalType": "address",
          "name": "operator",
          "type": "address"
        },
        {
          "internalType": "bool",
          "name": "approved",
          "type": "bool"
        }
      ],
      "name": "setApprovalForAll",
      "outputs": [],
      "stateMutability": "nonpayable",
      "type": "function"
    },
    {
      "inputs": [
        {
          "internalType": "bytes4",
          "name": "interfaceId",
          "type": "bytes4"
        }
      ],
      "name": "supportsInterface",
      "outputs": [
        {
          "internalType": "bool",
          "name": "",
          "type": "bool"
        }
      ],
      "stateMutability": "view",
      "type": "function"
    },
    {
      "inputs": [],
      "name": "symbol",
      "outputs": [
        {
          "internalType": "string",
          "name": "",
          "type": "string"
        }
      ],
      "stateMutability": "view",
      "type": "function"
    },
    {
      "inputs": [
        {
          "internalType": "uint256",
          "name": "tokenId",
          "type": "uint256"
        }
      ],
      "name": "tokenURI",
      "outputs": [
        {
          "internalType": "string",
          "name": "",
          "type": "string"
        }
      ],
      "stateMutability": "view",
      "type": "function"
    },
    {
      "inputs": [
        {
          "internalType": "address",
          "name": "from",
          "type": "address"
        },
        {
          "internalType": "address",
          "name": "to",
          "type": "address"
        },
        {
          "internalType": "uint256",
          "name": "tokenId",
          "type": "uint256"
        }
      ],
      "name": "transferFrom",
      "outputs": [],
      "stateMutability": "nonpayable",
      "type": "function"
    }
  ],
  "bytecode": "0x60806040523480156200001157600080fd5b506040518060400160405280600a81526020017f526166666c65446f6c6c000000000000000000000000000000000000000000008152506040518060400160405280600781526020017f5246464c444c4c00000000000000000000000000000000000000000000000000815250816000908051906020019062000096929190620000b8565b508060019080519060200190620000af929190620000b8565b505050620001cd565b828054620000c69062000197565b90600052602060002090601f016020900481019282620000ea576000855562000136565b82601f106200010557805160ff191683800117855562000136565b8280016001018555821562000136579182015b828111156200013557825182559160200191906001019062000118565b5b50905062000145919062000149565b5090565b5b80821115620001645760008160009055506001016200014a565b5090565b7f4e487b7100000000000000000000000000000000000000000000000000000000600052602260045260246000fd5b60006002820490506001821680620001b057607f821691505b60208210811415620001c757620001c662000168565b5b50919050565b6128b980620001dd6000396000f3fe608060405234801561001057600080fd5b50600436106100ea5760003560e01c80636352211e1161008c578063a22cb46511610066578063a22cb4651461026f578063b88d4fde1461028b578063c87b56dd146102a7578063e985e9c5146102d7576100ea565b80636352211e146101f157806370a082311461022157806395d89b4114610251576100ea565b8063081812fc116100c8578063081812fc1461016d578063095ea7b31461019d57806323b872dd146101b957806342842e0e146101d5576100ea565b806301ffc9a7146100ef57806306cefc6c1461011f57806306fdde031461014f575b600080fd5b61010960048036038101906101049190611889565b610307565b60405161011691906118d1565b60405180910390f35b61013960048036038101906101349190611a90565b6103e9565b6040516101469190611b05565b60405180910390f35b610157610420565b6040516101649190611ba8565b60405180910390f35b61018760048036038101906101829190611bf6565b6104b2565b6040516101949190611c32565b60405180910390f35b6101b760048036038101906101b29190611c4d565b6104f8565b005b6101d360048036038101906101ce9190611c8d565b610610565b005b6101ef60048036038101906101ea9190611c8d565b610670565b005b61020b60048036038101906102069190611bf6565b610690565b6040516102189190611c32565b60405180910390f35b61023b60048036038101906102369190611ce0565b610742565b6040516102489190611b05565b60405180910390f35b6102596107fa565b6040516102669190611ba8565b60405180910390f35b61028960048036038101906102849190611d39565b61088c565b005b6102a560048036038101906102a09190611e1a565b6108a2565b005b6102c160048036038101906102bc9190611bf6565b610904565b6040516102ce9190611ba8565b60405180910390f35b6102f160048036038101906102ec9190611e9d565b610916565b6040516102fe91906118d1565b60405180910390f35b60007f80ac58cd000000000000000000000000000000000000000000000000000000007bffffffffffffffffffffffffffffffffffffffffffffffffffffffff1916827bffffffffffffffffffffffffffffffffffffffffffffffffffffffff191614806103d257507f5b5e139f000000000000000000000000000000000000000000000000000000007bffffffffffffffffffffffffffffffffffffffffffffffffffffffff1916827bffffffffffffffffffffffffffffffffffffffffffffffffffffffff1916145b806103e257506103e1826109aa565b5b9050919050565b6000806103f66007610a14565b90506104028482610a22565b61040c8184610bfc565b6104166007610c70565b8091505092915050565b60606000805461042f90611f0c565b80601f016020809104026020016040519081016040528092919081815260200182805461045b90611f0c565b80156104a85780601f1061047d576101008083540402835291602001916104a8565b820191906000526020600020905b81548152906001019060200180831161048b57829003601f168201915b5050505050905090565b60006104bd82610c86565b6004600083815260200190815260200160002060009054906101000a900473ffffffffffffffffffffffffffffffffffffffff169050919050565b600061050382610690565b90508073ffffffffffffffffffffffffffffffffffffffff168373ffffffffffffffffffffffffffffffffffffffff161415610574576040517f08c379a000000000000000000000000000000000000000000000000000000000815260040161056b90611fb0565b60405180910390fd5b8073ffffffffffffffffffffffffffffffffffffffff16610593610cd1565b73ffffffffffffffffffffffffffffffffffffffff1614806105c257506105c1816105bc610cd1565b610916565b5b610601576040517f08c379a00000000000000000000000000000000000000000000000000000000081526004016105f890612042565b60405180910390fd5b61060b8383610cd9565b505050565b61062161061b610cd1565b82610d92565b610660576040517f08c379a0000000000000000000000000000000000000000000000000000000008152600401610657906120d4565b60405180910390fd5b61066b838383610e27565b505050565b61068b838383604051806020016040528060008152506108a2565b505050565b6000806002600084815260200190815260200160002060009054906101000a900473ffffffffffffffffffffffffffffffffffffffff169050600073ffffffffffffffffffffffffffffffffffffffff168173ffffffffffffffffffffffffffffffffffffffff161415610739576040517f08c379a000000000000000000000000000000000000000000000000000000000815260040161073090612140565b60405180910390fd5b80915050919050565b60008073ffffffffffffffffffffffffffffffffffffffff168273ffffffffffffffffffffffffffffffffffffffff1614156107b3576040517f08c379a00000000000000000000000000000000000000000000000000000000081526004016107aa906121d2565b60405180910390fd5b600360008373ffffffffffffffffffffffffffffffffffffffff1673ffffffffffffffffffffffffffffffffffffffff168152602001908152602001600020549050919050565b60606001805461080990611f0c565b80601f016020809104026020016040519081016040528092919081815260200182805461083590611f0c565b80156108825780601f1061085757610100808354040283529160200191610882565b820191906000526020600020905b81548152906001019060200180831161086557829003601f168201915b5050505050905090565b61089e610897610cd1565b838361108e565b5050565b6108b36108ad610cd1565b83610d92565b6108f2576040517f08c379a00000000000000000000000000000000000000000000000000000000081526004016108e9906120d4565b60405180910390fd5b6108fe848484846111fb565b50505050565b606061090f82611257565b9050919050565b6000600560008473ffffffffffffffffffffffffffffffffffffffff1673ffffffffffffffffffffffffffffffffffffffff16815260200190815260200160002060008373ffffffffffffffffffffffffffffffffffffffff1673ffffffffffffffffffffffffffffffffffffffff16815260200190815260200160002060009054906101000a900460ff16905092915050565b60007f01ffc9a7000000000000000000000000000000000000000000000000000000007bffffffffffffffffffffffffffffffffffffffffffffffffffffffff1916827bffffffffffffffffffffffffffffffffffffffffffffffffffffffff1916149050919050565b600081600001549050919050565b600073ffffffffffffffffffffffffffffffffffffffff168273ffffffffffffffffffffffffffffffffffffffff161415610a92576040517f08c379a0000000000000000000000000000000000000000000000000000000008152600401610a899061223e565b60405180910390fd5b610a9b8161136a565b15610adb576040517f08c379a0000000000000000000000000000000000000000000000000000000008152600401610ad2906122aa565b60405180910390fd5b610ae7600083836113d6565b6001600360008473ffffffffffffffffffffffffffffffffffffffff1673ffffffffffffffffffffffffffffffffffffffff1681526020019081526020016000206000828254610b3791906122f9565b92505081905550816002600083815260200190815260200160002060006101000a81548173ffffffffffffffffffffffffffffffffffffffff021916908373ffffffffffffffffffffffffffffffffffffffff160217905550808273ffffffffffffffffffffffffffffffffffffffff16600073ffffffffffffffffffffffffffffffffffffffff167fddf252ad1be2c89b69c2b068fc378daa952ba7f163c4a11628f55a4df523b3ef60405160405180910390a4610bf8600083836113db565b5050565b610c058261136a565b610c44576040517f08c379a0000000000000000000000000000000000000000000000000000000008152600401610c3b906123c1565b60405180910390fd5b80600660008481526020019081526020016000209080519060200190610c6b92919061177a565b505050565b6001816000016000828254019250508190555050565b610c8f8161136a565b610cce576040517f08c379a0000000000000000000000000000000000000000000000000000000008152600401610cc590612140565b60405180910390fd5b50565b600033905090565b816004600083815260200190815260200160002060006101000a81548173ffffffffffffffffffffffffffffffffffffffff021916908373ffffffffffffffffffffffffffffffffffffffff160217905550808273ffffffffffffffffffffffffffffffffffffffff16610d4c83610690565b73ffffffffffffffffffffffffffffffffffffffff167f8c5be1e5ebec7d5bd14f71427d1e84f3dd0314c0f7b2291e5b200ac8c7c3b92560405160405180910390a45050565b600080610d9e83610690565b90508073ffffffffffffffffffffffffffffffffffffffff168473ffffffffffffffffffffffffffffffffffffffff161480610de05750610ddf8185610916565b5b80610e1e57508373ffffffffffffffffffffffffffffffffffffffff16610e06846104b2565b73ffffffffffffffffffffffffffffffffffffffff16145b91505092915050565b8273ffffffffffffffffffffffffffffffffffffffff16610e4782610690565b73ffffffffffffffffffffffffffffffffffffffff1614610e9d576040517f08c379a0000000000000000000000000000000000000000000000000000000008152600401610e9490612453565b60405180910390fd5b600073ffffffffffffffffffffffffffffffffffffffff168273ffffffffffffffffffffffffffffffffffffffff161415610f0d576040517f08c379a0000000000000000000000000000000000000000000000000000000008152600401610f04906124e5565b60405180910390fd5b610f188383836113d6565b610f23600082610cd9565b6001600360008573ffffffffffffffffffffffffffffffffffffffff1673ffffffffffffffffffffffffffffffffffffffff1681526020019081526020016000206000828254610f739190612505565b925050819055506001600360008473ffffffffffffffffffffffffffffffffffffffff1673ffffffffffffffffffffffffffffffffffffffff1681526020019081526020016000206000828254610fca91906122f9565b92505081905550816002600083815260200190815260200160002060006101000a81548173ffffffffffffffffffffffffffffffffffffffff021916908373ffffffffffffffffffffffffffffffffffffffff160217905550808273ffffffffffffffffffffffffffffffffffffffff168473ffffffffffffffffffffffffffffffffffffffff167fddf252ad1be2c89b69c2b068fc378daa952ba7f163c4a11628f55a4df523b3ef60405160405180910390a46110898383836113db565b505050565b8173ffffffffffffffffffffffffffffffffffffffff168373ffffffffffffffffffffffffffffffffffffffff1614156110fd576040517f08c379a00000000000000000000000000000000000000000000000000000000081526004016110f490612585565b60405180910390fd5b80600560008573ffffffffffffffffffffffffffffffffffffffff1673ffffffffffffffffffffffffffffffffffffffff16815260200190815260200160002060008473ffffffffffffffffffffffffffffffffffffffff1673ffffffffffffffffffffffffffffffffffffffff16815260200190815260200160002060006101000a81548160ff0219169083151502179055508173ffffffffffffffffffffffffffffffffffffffff168373ffffffffffffffffffffffffffffffffffffffff167f17307eab39ab6107e8899845ad3d59bd9653f200f220920489ca2b5937696c31836040516111ee91906118d1565b60405180910390a3505050565b611206848484610e27565b611212848484846113e0565b611251576040517f08c379a000000000000000000000000000000000000000000000000000000000815260040161124890612617565b60405180910390fd5b50505050565b606061126282610c86565b600060066000848152602001908152602001600020805461128290611f0c565b80601f01602080910402602001604051908101604052809291908181526020018280546112ae90611f0c565b80156112fb5780601f106112d0576101008083540402835291602001916112fb565b820191906000526020600020905b8154815290600101906020018083116112de57829003601f168201915b50505050509050600061130c611577565b9050600081511415611322578192505050611365565b60008251111561135757808260405160200161133f929190612673565b60405160208183030381529060405292505050611365565b6113608461158e565b925050505b919050565b60008073ffffffffffffffffffffffffffffffffffffffff166002600084815260200190815260200160002060009054906101000a900473ffffffffffffffffffffffffffffffffffffffff1673ffffffffffffffffffffffffffffffffffffffff1614159050919050565b505050565b505050565b60006114018473ffffffffffffffffffffffffffffffffffffffff166115f6565b1561156a578373ffffffffffffffffffffffffffffffffffffffff1663150b7a0261142a610cd1565b8786866040518563ffffffff1660e01b815260040161144c94939291906126ec565b602060405180830381600087803b15801561146657600080fd5b505af192505050801561149757506040513d601f19601f82011682018060405250810190611494919061274d565b60015b61151a573d80600081146114c7576040519150601f19603f3d011682016040523d82523d6000602084013e6114cc565b606091505b50600081511415611512576040517f08c379a000000000000000000000000000000000000000000000000000000000815260040161150990612617565b60405180910390fd5b805181602001fd5b63150b7a0260e01b7bffffffffffffffffffffffffffffffffffffffffffffffffffffffff1916817bffffffffffffffffffffffffffffffffffffffffffffffffffffffff19161491505061156f565b600190505b949350505050565b606060405180602001604052806000815250905090565b606061159982610c86565b60006115a3611577565b905060008151116115c357604051806020016040528060008152506115ee565b806115cd84611619565b6040516020016115de929190612673565b6040516020818303038152906040525b915050919050565b6000808273ffffffffffffffffffffffffffffffffffffffff163b119050919050565b60606000821415611661576040518060400160405280600181526020017f30000000000000000000000000000000000000000000000000000000000000008152509050611775565b600082905060005b6000821461169357808061167c9061277a565b915050600a8261168c91906127f2565b9150611669565b60008167ffffffffffffffff8111156116af576116ae611965565b5b6040519080825280601f01601f1916602001820160405280156116e15781602001600182028036833780820191505090505b5090505b6000851461176e576001826116fa9190612505565b9150600a856117099190612823565b603061171591906122f9565b60f81b81838151811061172b5761172a612854565b5b60200101907effffffffffffffffffffffffffffffffffffffffffffffffffffffffffffff1916908160001a905350600a8561176791906127f2565b94506116e5565b8093505050505b919050565b82805461178690611f0c565b90600052602060002090601f0160209004810192826117a857600085556117ef565b82601f106117c157805160ff19168380011785556117ef565b828001600101855582156117ef579182015b828111156117ee5782518255916020019190600101906117d3565b5b5090506117fc9190611800565b5090565b5b80821115611819576000816000905550600101611801565b5090565b6000604051905090565b600080fd5b600080fd5b60007fffffffff0000000000000000000000000000000000000000000000000000000082169050919050565b61186681611831565b811461187157600080fd5b50565b6000813590506118838161185d565b92915050565b60006020828403121561189f5761189e611827565b5b60006118ad84828501611874565b91505092915050565b60008115159050919050565b6118cb816118b6565b82525050565b60006020820190506118e660008301846118c2565b92915050565b600073ffffffffffffffffffffffffffffffffffffffff82169050919050565b6000611917826118ec565b9050919050565b6119278161190c565b811461193257600080fd5b50565b6000813590506119448161191e565b92915050565b600080fd5b600080fd5b6000601f19601f8301169050919050565b7f4e487b7100000000000000000000000000000000000000000000000000000000600052604160045260246000fd5b61199d82611954565b810181811067ffffffffffffffff821117156119bc576119bb611965565b5b80604052505050565b60006119cf61181d565b90506119db8282611994565b919050565b600067ffffffffffffffff8211156119fb576119fa611965565b5b611a0482611954565b9050602081019050919050565b82818337600083830152505050565b6000611a33611a2e846119e0565b6119c5565b905082815260208101848484011115611a4f57611a4e61194f565b5b611a5a848285611a11565b509392505050565b600082601f830112611a7757611a7661194a565b5b8135611a87848260208601611a20565b91505092915050565b60008060408385031215611aa757611aa6611827565b5b6000611ab585828601611935565b925050602083013567ffffffffffffffff811115611ad657611ad561182c565b5b611ae285828601611a62565b9150509250929050565b6000819050919050565b611aff81611aec565b82525050565b6000602082019050611b1a6000830184611af6565b92915050565b600081519050919050565b600082825260208201905092915050565b60005b83811015611b5a578082015181840152602081019050611b3f565b83811115611b69576000848401525b50505050565b6000611b7a82611b20565b611b848185611b2b565b9350611b94818560208601611b3c565b611b9d81611954565b840191505092915050565b60006020820190508181036000830152611bc28184611b6f565b905092915050565b611bd381611aec565b8114611bde57600080fd5b50565b600081359050611bf081611bca565b92915050565b600060208284031215611c0c57611c0b611827565b5b6000611c1a84828501611be1565b91505092915050565b611c2c8161190c565b82525050565b6000602082019050611c476000830184611c23565b92915050565b60008060408385031215611c6457611c63611827565b5b6000611c7285828601611935565b9250506020611c8385828601611be1565b9150509250929050565b600080600060608486031215611ca657611ca5611827565b5b6000611cb486828701611935565b9350506020611cc586828701611935565b9250506040611cd686828701611be1565b9150509250925092565b600060208284031215611cf657611cf5611827565b5b6000611d0484828501611935565b91505092915050565b611d16816118b6565b8114611d2157600080fd5b50565b600081359050611d3381611d0d565b92915050565b60008060408385031215611d5057611d4f611827565b5b6000611d5e85828601611935565b9250506020611d6f85828601611d24565b9150509250929050565b600067ffffffffffffffff821115611d9457611d93611965565b5b611d9d82611954565b9050602081019050919050565b6000611dbd611db884611d79565b6119c5565b905082815260208101848484011115611dd957611dd861194f565b5b611de4848285611a11565b509392505050565b600082601f830112611e0157611e0061194a565b5b8135611e11848260208601611daa565b91505092915050565b60008060008060808587031215611e3457611e33611827565b5b6000611e4287828801611935565b9450506020611e5387828801611935565b9350506040611e6487828801611be1565b925050606085013567ffffffffffffffff811115611e8557611e8461182c565b5b611e9187828801611dec565b91505092959194509250565b60008060408385031215611eb457611eb3611827565b5b6000611ec285828601611935565b9250506020611ed385828601611935565b9150509250929050565b7f4e487b7100000000000000000000000000000000000000000000000000000000600052602260045260246000fd5b60006002820490506001821680611f2457607f821691505b60208210811415611f3857611f37611edd565b5b50919050565b7f4552433732313a20617070726f76616c20746f2063757272656e74206f776e6560008201527f7200000000000000000000000000000000000000000000000000000000000000602082015250565b6000611f9a602183611b2b565b9150611fa582611f3e565b604082019050919050565b60006020820190508181036000830152611fc981611f8d565b9050919050565b7f4552433732313a20617070726f76652063616c6c6572206973206e6f7420746f60008201527f6b656e206f776e6572206e6f7220617070726f76656420666f7220616c6c0000602082015250565b600061202c603e83611b2b565b915061203782611fd0565b604082019050919050565b6000602082019050818103600083015261205b8161201f565b9050919050565b7f4552433732313a2063616c6c6572206973206e6f7420746f6b656e206f776e6560008201527f72206e6f7220617070726f766564000000000000000000000000000000000000602082015250565b60006120be602e83611b2b565b91506120c982612062565b604082019050919050565b600060208201905081810360008301526120ed816120b1565b9050919050565b7f4552433732313a20696e76616c696420746f6b656e2049440000000000000000600082015250565b600061212a601883611b2b565b9150612135826120f4565b602082019050919050565b600060208201905081810360008301526121598161211d565b9050919050565b7f4552433732313a2061646472657373207a65726f206973206e6f74206120766160008201527f6c6964206f776e65720000000000000000000000000000000000000000000000602082015250565b60006121bc602983611b2b565b91506121c782612160565b604082019050919050565b600060208201905081810360008301526121eb816121af565b9050919050565b7f4552433732313a206d696e7420746f20746865207a65726f2061646472657373600082015250565b6000612228602083611b2b565b9150612233826121f2565b602082019050919050565b600060208201905081810360008301526122578161221b565b9050919050565b7f4552433732313a20746f6b656e20616c7265616479206d696e74656400000000600082015250565b6000612294601c83611b2b565b915061229f8261225e565b602082019050919050565b600060208201905081810360008301526122c381612287565b9050919050565b7f4e487b7100000000000000000000000000000000000000000000000000000000600052601160045260246000fd5b600061230482611aec565b915061230f83611aec565b9250827fffffffffffffffffffffffffffffffffffffffffffffffffffffffffffffffff03821115612344576123436122ca565b5b828201905092915050565b7f45524337323155524953746f726167653a2055524920736574206f66206e6f6e60008201527f6578697374656e7420746f6b656e000000000000000000000000000000000000602082015250565b60006123ab602e83611b2b565b91506123b68261234f565b604082019050919050565b600060208201905081810360008301526123da8161239e565b9050919050565b7f4552433732313a207472616e736665722066726f6d20696e636f72726563742060008201527f6f776e6572000000000000000000000000000000000000000000000000000000602082015250565b600061243d602583611b2b565b9150612448826123e1565b604082019050919050565b6000602082019050818103600083015261246c81612430565b9050919050565b7f4552433732313a207472616e7366657220746f20746865207a65726f2061646460008201527f7265737300000000000000000000000000000000000000000000000000000000602082015250565b60006124cf602483611b2b565b91506124da82612473565b604082019050919050565b600060208201905081810360008301526124fe816124c2565b9050919050565b600061251082611aec565b915061251b83611aec565b92508282101561252e5761252d6122ca565b5b828203905092915050565b7f4552433732313a20617070726f766520746f2063616c6c657200000000000000600082015250565b600061256f601983611b2b565b915061257a82612539565b602082019050919050565b6000602082019050818103600083015261259e81612562565b9050919050565b7f4552433732313a207472616e7366657220746f206e6f6e20455243373231526560008201527f63656976657220696d706c656d656e7465720000000000000000000000000000602082015250565b6000612601603283611b2b565b915061260c826125a5565b604082019050919050565b60006020820190508181036000830152612630816125f4565b9050919050565b600081905092915050565b600061264d82611b20565b6126578185612637565b9350612667818560208601611b3c565b80840191505092915050565b600061267f8285612642565b915061268b8284612642565b91508190509392505050565b600081519050919050565b600082825260208201905092915050565b60006126be82612697565b6126c881856126a2565b93506126d8818560208601611b3c565b6126e181611954565b840191505092915050565b60006080820190506127016000830187611c23565b61270e6020830186611c23565b61271b6040830185611af6565b818103606083015261272d81846126b3565b905095945050505050565b6000815190506127478161185d565b92915050565b60006020828403121561276357612762611827565b5b600061277184828501612738565b91505092915050565b600061278582611aec565b91507fffffffffffffffffffffffffffffffffffffffffffffffffffffffffffffffff8214156127b8576127b76122ca565b5b600182019050919050565b7f4e487b7100000000000000000000000000000000000000000000000000000000600052601260045260246000fd5b60006127fd82611aec565b915061280883611aec565b925082612818576128176127c3565b5b828204905092915050565b600061282e82611aec565b915061283983611aec565b925082612849576128486127c3565b5b828206905092915050565b7f4e487b7100000000000000000000000000000000000000000000000000000000600052603260045260246000fdfea2646970667358221220072731b7ba3e8e26b719f7a5946bfdc7a2a69f4c45c998780ff9ad00615318ee64736f6c63430008090033",
  "linkReferences": {},
  "deployedLinkReferences": {}
}